{
  "_format": "hh-sol-artifact-1",
  "contractName": "Liquid",
  "sourceName": "contracts/Liquid.sol",
  "abi": [
    {
      "inputs": [
        {
          "internalType": "contract ERC20",
          "name": "_asset",
          "type": "address"
        }
      ],
      "stateMutability": "nonpayable",
      "type": "constructor"
    },
    {
      "anonymous": false,
      "inputs": [
        {
          "indexed": true,
          "internalType": "address",
          "name": "owner",
          "type": "address"
        },
        {
          "indexed": true,
          "internalType": "address",
          "name": "spender",
          "type": "address"
        },
        {
          "indexed": false,
          "internalType": "uint256",
          "name": "amount",
          "type": "uint256"
        }
      ],
      "name": "Approval",
      "type": "event"
    },
    {
      "anonymous": false,
      "inputs": [
        {
          "indexed": true,
          "internalType": "address",
          "name": "caller",
          "type": "address"
        },
        {
          "indexed": true,
          "internalType": "address",
          "name": "owner",
          "type": "address"
        },
        {
          "indexed": false,
          "internalType": "uint256",
          "name": "assets",
          "type": "uint256"
        },
        {
          "indexed": false,
          "internalType": "uint256",
          "name": "shares",
          "type": "uint256"
        }
      ],
      "name": "Deposit",
      "type": "event"
    },
    {
      "anonymous": false,
      "inputs": [
        {
          "indexed": true,
          "internalType": "address",
          "name": "previousOwner",
          "type": "address"
        },
        {
          "indexed": true,
          "internalType": "address",
          "name": "newOwner",
          "type": "address"
        }
      ],
      "name": "OwnershipTransferred",
      "type": "event"
    },
    {
      "anonymous": false,
      "inputs": [
        {
          "indexed": false,
          "internalType": "address",
          "name": "recipient",
          "type": "address"
        },
        {
          "indexed": false,
          "internalType": "uint256",
          "name": "amount",
          "type": "uint256"
        }
      ],
      "name": "Pull",
      "type": "event"
    },
    {
      "anonymous": false,
      "inputs": [
        {
          "indexed": true,
          "internalType": "address",
          "name": "from",
          "type": "address"
        },
        {
          "indexed": true,
          "internalType": "address",
          "name": "to",
          "type": "address"
        },
        {
          "indexed": false,
          "internalType": "uint256",
          "name": "amount",
          "type": "uint256"
        }
      ],
      "name": "Transfer",
      "type": "event"
    },
    {
      "anonymous": false,
      "inputs": [
        {
          "indexed": true,
          "internalType": "address",
          "name": "caller",
          "type": "address"
        },
        {
          "indexed": true,
          "internalType": "address",
          "name": "receiver",
          "type": "address"
        },
        {
          "indexed": true,
          "internalType": "address",
          "name": "owner",
          "type": "address"
        },
        {
          "indexed": false,
          "internalType": "uint256",
          "name": "assets",
          "type": "uint256"
        },
        {
          "indexed": false,
          "internalType": "uint256",
          "name": "shares",
          "type": "uint256"
        }
      ],
      "name": "Withdraw",
      "type": "event"
    },
    {
      "inputs": [],
      "name": "DOMAIN_SEPARATOR",
      "outputs": [
        {
          "internalType": "bytes32",
          "name": "",
          "type": "bytes32"
        }
      ],
      "stateMutability": "view",
      "type": "function"
    },
    {
      "inputs": [
        {
          "internalType": "address",
          "name": "",
          "type": "address"
        },
        {
          "internalType": "address",
          "name": "",
          "type": "address"
        }
      ],
      "name": "allowance",
      "outputs": [
        {
          "internalType": "uint256",
          "name": "",
          "type": "uint256"
        }
      ],
      "stateMutability": "view",
      "type": "function"
    },
    {
      "inputs": [
        {
          "internalType": "address",
          "name": "spender",
          "type": "address"
        },
        {
          "internalType": "uint256",
          "name": "amount",
          "type": "uint256"
        }
      ],
      "name": "approve",
      "outputs": [
        {
          "internalType": "bool",
          "name": "",
          "type": "bool"
        }
      ],
      "stateMutability": "nonpayable",
      "type": "function"
    },
    {
      "inputs": [],
      "name": "asset",
      "outputs": [
        {
          "internalType": "contract ERC20",
          "name": "",
          "type": "address"
        }
      ],
      "stateMutability": "view",
      "type": "function"
    },
    {
      "inputs": [
        {
          "internalType": "address",
          "name": "",
          "type": "address"
        }
      ],
      "name": "balanceOf",
      "outputs": [
        {
          "internalType": "uint256",
          "name": "",
          "type": "uint256"
        }
      ],
      "stateMutability": "view",
      "type": "function"
    },
    {
      "inputs": [
        {
          "internalType": "uint256",
          "name": "shares",
          "type": "uint256"
        }
      ],
      "name": "convertToAssets",
      "outputs": [
        {
          "internalType": "uint256",
          "name": "",
          "type": "uint256"
        }
      ],
      "stateMutability": "view",
      "type": "function"
    },
    {
      "inputs": [
        {
          "internalType": "uint256",
          "name": "assets",
          "type": "uint256"
        }
      ],
      "name": "convertToShares",
      "outputs": [
        {
          "internalType": "uint256",
          "name": "",
          "type": "uint256"
        }
      ],
      "stateMutability": "view",
      "type": "function"
    },
    {
      "inputs": [],
      "name": "decimals",
      "outputs": [
        {
          "internalType": "uint8",
          "name": "",
          "type": "uint8"
        }
      ],
      "stateMutability": "view",
      "type": "function"
    },
    {
      "inputs": [
        {
          "internalType": "uint256",
          "name": "assets",
          "type": "uint256"
        },
        {
          "internalType": "address",
          "name": "receiver",
          "type": "address"
        }
      ],
      "name": "deposit",
      "outputs": [
        {
          "internalType": "uint256",
          "name": "shares",
          "type": "uint256"
        }
      ],
      "stateMutability": "nonpayable",
      "type": "function"
    },
    {
      "inputs": [
        {
          "internalType": "address",
          "name": "",
          "type": "address"
        }
      ],
      "name": "maxDeposit",
      "outputs": [
        {
          "internalType": "uint256",
          "name": "",
          "type": "uint256"
        }
      ],
      "stateMutability": "view",
      "type": "function"
    },
    {
      "inputs": [
        {
          "internalType": "address",
          "name": "",
          "type": "address"
        }
      ],
      "name": "maxMint",
      "outputs": [
        {
          "internalType": "uint256",
          "name": "",
          "type": "uint256"
        }
      ],
      "stateMutability": "view",
      "type": "function"
    },
    {
      "inputs": [
        {
          "internalType": "address",
          "name": "owner",
          "type": "address"
        }
      ],
      "name": "maxRedeem",
      "outputs": [
        {
          "internalType": "uint256",
          "name": "",
          "type": "uint256"
        }
      ],
      "stateMutability": "view",
      "type": "function"
    },
    {
      "inputs": [
        {
          "internalType": "address",
          "name": "owner",
          "type": "address"
        }
      ],
      "name": "maxWithdraw",
      "outputs": [
        {
          "internalType": "uint256",
          "name": "",
          "type": "uint256"
        }
      ],
      "stateMutability": "view",
      "type": "function"
    },
    {
      "inputs": [
        {
          "internalType": "uint256",
          "name": "shares",
          "type": "uint256"
        },
        {
          "internalType": "address",
          "name": "receiver",
          "type": "address"
        }
      ],
      "name": "mint",
      "outputs": [
        {
          "internalType": "uint256",
          "name": "assets",
          "type": "uint256"
        }
      ],
      "stateMutability": "nonpayable",
      "type": "function"
    },
    {
      "inputs": [],
      "name": "name",
      "outputs": [
        {
          "internalType": "string",
          "name": "",
          "type": "string"
        }
      ],
      "stateMutability": "view",
      "type": "function"
    },
    {
      "inputs": [
        {
          "internalType": "address",
          "name": "",
          "type": "address"
        }
      ],
      "name": "nonces",
      "outputs": [
        {
          "internalType": "uint256",
          "name": "",
          "type": "uint256"
        }
      ],
      "stateMutability": "view",
      "type": "function"
    },
    {
      "inputs": [],
      "name": "owner",
      "outputs": [
        {
          "internalType": "address",
          "name": "",
          "type": "address"
        }
      ],
      "stateMutability": "view",
      "type": "function"
    },
    {
      "inputs": [
        {
          "internalType": "address",
          "name": "owner",
          "type": "address"
        },
        {
          "internalType": "address",
          "name": "spender",
          "type": "address"
        },
        {
          "internalType": "uint256",
          "name": "value",
          "type": "uint256"
        },
        {
          "internalType": "uint256",
          "name": "deadline",
          "type": "uint256"
        },
        {
          "internalType": "uint8",
          "name": "v",
          "type": "uint8"
        },
        {
          "internalType": "bytes32",
          "name": "r",
          "type": "bytes32"
        },
        {
          "internalType": "bytes32",
          "name": "s",
          "type": "bytes32"
        }
      ],
      "name": "permit",
      "outputs": [],
      "stateMutability": "nonpayable",
      "type": "function"
    },
    {
      "inputs": [
        {
          "internalType": "uint256",
          "name": "assets",
          "type": "uint256"
        }
      ],
      "name": "previewDeposit",
      "outputs": [
        {
          "internalType": "uint256",
          "name": "",
          "type": "uint256"
        }
      ],
      "stateMutability": "view",
      "type": "function"
    },
    {
      "inputs": [
        {
          "internalType": "uint256",
          "name": "shares",
          "type": "uint256"
        }
      ],
      "name": "previewMint",
      "outputs": [
        {
          "internalType": "uint256",
          "name": "",
          "type": "uint256"
        }
      ],
      "stateMutability": "view",
      "type": "function"
    },
    {
      "inputs": [
        {
          "internalType": "uint256",
          "name": "shares",
          "type": "uint256"
        }
      ],
      "name": "previewRedeem",
      "outputs": [
        {
          "internalType": "uint256",
          "name": "",
          "type": "uint256"
        }
      ],
      "stateMutability": "view",
      "type": "function"
    },
    {
      "inputs": [
        {
          "internalType": "uint256",
          "name": "assets",
          "type": "uint256"
        }
      ],
      "name": "previewWithdraw",
      "outputs": [
        {
          "internalType": "uint256",
          "name": "",
          "type": "uint256"
        }
      ],
      "stateMutability": "view",
      "type": "function"
    },
    {
      "inputs": [
        {
          "internalType": "uint256",
          "name": "_amount",
          "type": "uint256"
        }
      ],
      "name": "pullToStake",
      "outputs": [],
      "stateMutability": "nonpayable",
      "type": "function"
    },
    {
      "inputs": [
        {
          "internalType": "uint256",
          "name": "shares",
          "type": "uint256"
        },
        {
          "internalType": "address",
          "name": "receiver",
          "type": "address"
        },
        {
          "internalType": "address",
          "name": "owner",
          "type": "address"
        }
      ],
      "name": "redeem",
      "outputs": [
        {
          "internalType": "uint256",
          "name": "assets",
          "type": "uint256"
        }
      ],
      "stateMutability": "nonpayable",
      "type": "function"
    },
    {
      "inputs": [],
      "name": "renounceOwnership",
      "outputs": [],
      "stateMutability": "nonpayable",
      "type": "function"
    },
    {
      "inputs": [],
      "name": "symbol",
      "outputs": [
        {
          "internalType": "string",
          "name": "",
          "type": "string"
        }
      ],
      "stateMutability": "view",
      "type": "function"
    },
    {
      "inputs": [],
      "name": "totalAssets",
      "outputs": [
        {
          "internalType": "uint256",
          "name": "",
          "type": "uint256"
        }
      ],
      "stateMutability": "view",
      "type": "function"
    },
    {
      "inputs": [],
      "name": "totalSupply",
      "outputs": [
        {
          "internalType": "uint256",
          "name": "",
          "type": "uint256"
        }
      ],
      "stateMutability": "view",
      "type": "function"
    },
    {
      "inputs": [
        {
          "internalType": "address",
          "name": "to",
          "type": "address"
        },
        {
          "internalType": "uint256",
          "name": "amount",
          "type": "uint256"
        }
      ],
      "name": "transfer",
      "outputs": [
        {
          "internalType": "bool",
          "name": "",
          "type": "bool"
        }
      ],
      "stateMutability": "nonpayable",
      "type": "function"
    },
    {
      "inputs": [
        {
          "internalType": "address",
          "name": "from",
          "type": "address"
        },
        {
          "internalType": "address",
          "name": "to",
          "type": "address"
        },
        {
          "internalType": "uint256",
          "name": "amount",
          "type": "uint256"
        }
      ],
      "name": "transferFrom",
      "outputs": [
        {
          "internalType": "bool",
          "name": "",
          "type": "bool"
        }
      ],
      "stateMutability": "nonpayable",
      "type": "function"
    },
    {
      "inputs": [
        {
          "internalType": "address",
          "name": "newOwner",
          "type": "address"
        }
      ],
      "name": "transferOwnership",
      "outputs": [],
      "stateMutability": "nonpayable",
      "type": "function"
    },
    {
      "inputs": [
        {
          "internalType": "uint256",
          "name": "_amount",
          "type": "uint256"
        }
      ],
      "name": "updateEarnings",
      "outputs": [],
      "stateMutability": "nonpayable",
      "type": "function"
    },
    {
      "inputs": [
        {
          "internalType": "uint256",
          "name": "assets",
          "type": "uint256"
        },
        {
          "internalType": "address",
          "name": "receiver",
          "type": "address"
        },
        {
          "internalType": "address",
          "name": "owner",
          "type": "address"
        }
      ],
      "name": "withdraw",
      "outputs": [
        {
          "internalType": "uint256",
          "name": "shares",
          "type": "uint256"
        }
      ],
      "stateMutability": "nonpayable",
      "type": "function"
    }
  ],
  "bytecode": "0x6101006040523480156200001257600080fd5b50604051620039c1380380620039c1833981810160405281019062000038919062000433565b806040518060400160405280600d81526020017f4c69717569645374616b696e67000000000000000000000000000000000000008152506040518060400160405280600281526020017f4c5300000000000000000000000000000000000000000000000000000000000081525081818473ffffffffffffffffffffffffffffffffffffffff1663313ce5676040518163ffffffff1660e01b815260040160206040518083038186803b158015620000ee57600080fd5b505afa15801562000103573d6000803e3d6000fd5b505050506040513d601f19601f820116820180604052508101906200012991906200045f565b82600090805190602001906200014192919062000355565b5081600190805190602001906200015a92919062000355565b508060ff1660808160ff1660f81b815250504660a0818152505062000184620001f760201b60201c565b60c081815250505050508273ffffffffffffffffffffffffffffffffffffffff1660e08173ffffffffffffffffffffffffffffffffffffffff1660601b81525050505050620001e8620001dc6200028760201b60201c565b6200028f60201b60201c565b600060078190555050620006e1565b60007f8b73c3c69bb8fe3d512ecc4cf759cc79239f7b179b0ffacaa9a75d522b39400f60006040516200022b919062000549565b60405180910390207fc89efdaa54c0f20c7adf612882df0950f5a951637e0307cdcb4c672f298b8bc646306040516020016200026c95949392919062000562565b60405160208183030381529060405280519060200120905090565b600033905090565b6000600660009054906101000a900473ffffffffffffffffffffffffffffffffffffffff16905081600660006101000a81548173ffffffffffffffffffffffffffffffffffffffff021916908373ffffffffffffffffffffffffffffffffffffffff1602179055508173ffffffffffffffffffffffffffffffffffffffff168173ffffffffffffffffffffffffffffffffffffffff167f8be0079c531659141344cd1fd0a4f28419497f9722a3daafe3b4186f6b6457e060405160405180910390a35050565b828054620003639062000648565b90600052602060002090601f016020900481019282620003875760008555620003d3565b82601f10620003a257805160ff1916838001178555620003d3565b82800160010185558215620003d3579182015b82811115620003d2578251825591602001919060010190620003b5565b5b509050620003e29190620003e6565b5090565b5b8082111562000401576000816000905550600101620003e7565b5090565b6000815190506200041681620006ad565b92915050565b6000815190506200042d81620006c7565b92915050565b6000602082840312156200044657600080fd5b6000620004568482850162000405565b91505092915050565b6000602082840312156200047257600080fd5b600062000482848285016200041c565b91505092915050565b6200049681620005df565b82525050565b620004a781620005f3565b82525050565b60008154620004bc8162000648565b620004c88186620005d4565b94506001821660008114620004e65760018114620004f8576200052f565b60ff198316865281860193506200052f565b6200050385620005bf565b60005b83811015620005275781548189015260018201915060208101905062000506565b838801955050505b50505092915050565b620005438162000631565b82525050565b6000620005578284620004ad565b915081905092915050565b600060a0820190506200057960008301886200049c565b6200058860208301876200049c565b6200059760408301866200049c565b620005a6606083018562000538565b620005b560808301846200048b565b9695505050505050565b60008190508160005260206000209050919050565b600081905092915050565b6000620005ec8262000611565b9050919050565b6000819050919050565b60006200060a82620005df565b9050919050565b600073ffffffffffffffffffffffffffffffffffffffff82169050919050565b6000819050919050565b600060ff82169050919050565b600060028204905060018216806200066157607f821691505b602082108114156200067857620006776200067e565b5b50919050565b7f4e487b7100000000000000000000000000000000000000000000000000000000600052602260045260246000fd5b620006b881620005fd565b8114620006c457600080fd5b50565b620006d2816200063b565b8114620006de57600080fd5b50565b60805160f81c60a05160c05160e05160601c61326f620007526000396000818161073101528181610cb001528181610cd601528181610e2101528181610f7a015281816111bd01528181611670015261190f01526000610c8901526000610c5501526000610c2f015261326f6000f3fe608060405234801561001057600080fd5b50600436106101fb5760003560e01c8063715018a61161011a578063ba087652116100ad578063d505accf1161007c578063d505accf14610662578063d905777e1461067e578063dd62ed3e146106ae578063ef8b30f7146106de578063f2fde38b1461070e576101fb565b8063ba087652146105a2578063c63d75b6146105d2578063c6e6f59214610602578063ce96cb7714610632576101fb565b806395d89b41116100e957806395d89b41146104f4578063a9059cbb14610512578063b3d7f6b914610542578063b460af9414610572576101fb565b8063715018a61461046c5780637ecebe00146104765780638da5cb5b146104a657806394bf804d146104c4576101fb565b80633644e5151161019257806364181e791161016157806364181e79146103d45780636e553f65146103f05780636ebd6dec1461042057806370a082311461043c576101fb565b80633644e5151461033857806338d52e0f14610356578063402d267d146103745780634cdad506146103a4576101fb565b80630a28a477116101ce5780630a28a4771461029c57806318160ddd146102cc57806323b872dd146102ea578063313ce5671461031a576101fb565b806301e1d1141461020057806306fdde031461021e57806307a2d13a1461023c578063095ea7b31461026c575b600080fd5b61020861072a565b6040516102159190612bc6565b60405180910390f35b6102266107e7565b6040516102339190612aa4565b60405180910390f35b6102566004803603810190610251919061255e565b610875565b6040516102639190612bc6565b60405180910390f35b610286600480360381019061028191906124f9565b6108b0565b604051610293919061295a565b60405180910390f35b6102b660048036038101906102b1919061255e565b6109a2565b6040516102c39190612bc6565b60405180910390f35b6102d46109dd565b6040516102e19190612bc6565b60405180910390f35b61030460048036038101906102ff919061240c565b6109e3565b604051610311919061295a565b60405180910390f35b610322610c2d565b60405161032f9190612c0a565b60405180910390f35b610340610c51565b60405161034d9190612975565b60405180910390f35b61035e610cae565b60405161036b9190612a89565b60405180910390f35b61038e600480360381019061038991906123a7565b610cd2565b60405161039b9190612bc6565b60405180910390f35b6103be60048036038101906103b9919061255e565b610d91565b6040516103cb9190612bc6565b60405180910390f35b6103ee60048036038101906103e9919061255e565b610da3565b005b61040a600480360381019061040591906125b0565b610f22565b6040516104179190612bc6565b60405180910390f35b61043a6004803603810190610435919061255e565b611040565b005b610456600480360381019061045191906123a7565b6110c6565b6040516104639190612bc6565b60405180910390f35b6104746110de565b005b610490600480360381019061048b91906123a7565b611166565b60405161049d9190612bc6565b60405180910390f35b6104ae61117e565b6040516104bb9190612916565b60405180910390f35b6104de60048036038101906104d991906125b0565b6111a8565b6040516104eb9190612bc6565b60405180910390f35b6104fc611283565b6040516105099190612aa4565b60405180910390f35b61052c600480360381019061052791906124f9565b611311565b604051610539919061295a565b60405180910390f35b61055c6004803603810190610557919061255e565b611425565b6040516105699190612bc6565b60405180910390f35b61058c600480360381019061058791906125ec565b611460565b6040516105999190612bc6565b60405180910390f35b6105bc60048036038101906105b791906125ec565b6116bb565b6040516105c99190612bc6565b60405180910390f35b6105ec60048036038101906105e791906123a7565b61195a565b6040516105f99190612bc6565b60405180910390f35b61061c6004803603810190610617919061255e565b611984565b6040516106299190612bc6565b60405180910390f35b61064c600480360381019061064791906123a7565b6119bf565b6040516106599190612bc6565b60405180910390f35b61067c6004803603810190610677919061245b565b611a10565b005b610698600480360381019061069391906123a7565b611d09565b6040516106a59190612bc6565b60405180910390f35b6106c860048036038101906106c391906123d0565b611d52565b6040516106d59190612bc6565b60405180910390f35b6106f860048036038101906106f3919061255e565b611d77565b6040516107059190612bc6565b60405180910390f35b610728600480360381019061072391906123a7565b611d89565b005b60006007547f000000000000000000000000000000000000000000000000000000000000000073ffffffffffffffffffffffffffffffffffffffff166370a08231306040518263ffffffff1660e01b81526004016107889190612916565b60206040518083038186803b1580156107a057600080fd5b505afa1580156107b4573d6000803e3d6000fd5b505050506040513d601f19601f820116820180604052508101906107d89190612587565b6107e29190612c6c565b905090565b600080546107f490612f77565b80601f016020809104026020016040519081016040528092919081815260200182805461082090612f77565b801561086d5780601f106108425761010080835404028352916020019161086d565b820191906000526020600020905b81548152906001019060200180831161085057829003601f168201915b505050505081565b6000806002549050600081146108a6576108a161089061072a565b8285611e819092919063ffffffff16565b6108a8565b825b915050919050565b600081600460003373ffffffffffffffffffffffffffffffffffffffff1673ffffffffffffffffffffffffffffffffffffffff16815260200190815260200160002060008573ffffffffffffffffffffffffffffffffffffffff1673ffffffffffffffffffffffffffffffffffffffff168152602001908152602001600020819055508273ffffffffffffffffffffffffffffffffffffffff163373ffffffffffffffffffffffffffffffffffffffff167f8c5be1e5ebec7d5bd14f71427d1e84f3dd0314c0f7b2291e5b200ac8c7c3b925846040516109909190612bc6565b60405180910390a36001905092915050565b6000806002549050600081146109d3576109ce816109be61072a565b85611ea99092919063ffffffff16565b6109d5565b825b915050919050565b60025481565b600080600460008673ffffffffffffffffffffffffffffffffffffffff1673ffffffffffffffffffffffffffffffffffffffff16815260200190815260200160002060003373ffffffffffffffffffffffffffffffffffffffff1673ffffffffffffffffffffffffffffffffffffffff1681526020019081526020016000205490507fffffffffffffffffffffffffffffffffffffffffffffffffffffffffffffffff8114610b19578281610a989190612e8d565b600460008773ffffffffffffffffffffffffffffffffffffffff1673ffffffffffffffffffffffffffffffffffffffff16815260200190815260200160002060003373ffffffffffffffffffffffffffffffffffffffff1673ffffffffffffffffffffffffffffffffffffffff168152602001908152602001600020819055505b82600360008773ffffffffffffffffffffffffffffffffffffffff1673ffffffffffffffffffffffffffffffffffffffff1681526020019081526020016000206000828254610b689190612e8d565b9250508190555082600360008673ffffffffffffffffffffffffffffffffffffffff1673ffffffffffffffffffffffffffffffffffffffff168152602001908152602001600020600082825401925050819055508373ffffffffffffffffffffffffffffffffffffffff168573ffffffffffffffffffffffffffffffffffffffff167fddf252ad1be2c89b69c2b068fc378daa952ba7f163c4a11628f55a4df523b3ef85604051610c199190612bc6565b60405180910390a360019150509392505050565b7f000000000000000000000000000000000000000000000000000000000000000081565b60007f00000000000000000000000000000000000000000000000000000000000000004614610c8757610c82611edb565b610ca9565b7f00000000000000000000000000000000000000000000000000000000000000005b905090565b7f000000000000000000000000000000000000000000000000000000000000000081565b60007f000000000000000000000000000000000000000000000000000000000000000073ffffffffffffffffffffffffffffffffffffffff1663313ce5676040518163ffffffff1660e01b815260040160206040518083038186803b158015610d3a57600080fd5b505afa158015610d4e573d6000803e3d6000fd5b505050506040513d601f19601f82011682018060405250810190610d72919061263b565b600a610d7e9190612d15565b60fa610d8a9190612e33565b9050919050565b6000610d9c82610875565b9050919050565b610dab611f67565b73ffffffffffffffffffffffffffffffffffffffff16610dc961117e565b73ffffffffffffffffffffffffffffffffffffffff1614610e1f576040517f08c379a0000000000000000000000000000000000000000000000000000000008152600401610e1690612b46565b60405180910390fd5b7f000000000000000000000000000000000000000000000000000000000000000073ffffffffffffffffffffffffffffffffffffffff1663a9059cbb33836040518363ffffffff1660e01b8152600401610e7a929190612931565b602060405180830381600087803b158015610e9457600080fd5b505af1158015610ea8573d6000803e3d6000fd5b505050506040513d601f19601f82011682018060405250810190610ecc9190612535565b508060076000828254610edf9190612c6c565b925050819055507fe1a5602e30931761352458316383b4fb6cb0f5ebe0b746c614d3e4836c4ccef53382604051610f17929190612931565b60405180910390a150565b600080610f2e84611d77565b9150811415610f72576040517f08c379a0000000000000000000000000000000000000000000000000000000008152600401610f6990612ac6565b60405180910390fd5b610fbf3330857f000000000000000000000000000000000000000000000000000000000000000073ffffffffffffffffffffffffffffffffffffffff16611f6f909392919063ffffffff16565b610fc9828261200e565b8173ffffffffffffffffffffffffffffffffffffffff163373ffffffffffffffffffffffffffffffffffffffff167fdcbc1c05240f31ff3ad067ef1ee35ce4997762752e3a095284754544f4c709d78584604051611028929190612be1565b60405180910390a361103a83826120de565b92915050565b611048611f67565b73ffffffffffffffffffffffffffffffffffffffff1661106661117e565b73ffffffffffffffffffffffffffffffffffffffff16146110bc576040517f08c379a00000000000000000000000000000000000000000000000000000000081526004016110b390612b46565b60405180910390fd5b8060078190555050565b60036020528060005260406000206000915090505481565b6110e6611f67565b73ffffffffffffffffffffffffffffffffffffffff1661110461117e565b73ffffffffffffffffffffffffffffffffffffffff161461115a576040517f08c379a000000000000000000000000000000000000000000000000000000000815260040161115190612b46565b60405180910390fd5b61116460006120e2565b565b60056020528060005260406000206000915090505481565b6000600660009054906101000a900473ffffffffffffffffffffffffffffffffffffffff16905090565b60006111b383611425565b90506112023330837f000000000000000000000000000000000000000000000000000000000000000073ffffffffffffffffffffffffffffffffffffffff16611f6f909392919063ffffffff16565b61120c828461200e565b8173ffffffffffffffffffffffffffffffffffffffff163373ffffffffffffffffffffffffffffffffffffffff167fdcbc1c05240f31ff3ad067ef1ee35ce4997762752e3a095284754544f4c709d7838660405161126b929190612be1565b60405180910390a361127d81846120de565b92915050565b6001805461129090612f77565b80601f01602080910402602001604051908101604052809291908181526020018280546112bc90612f77565b80156113095780601f106112de57610100808354040283529160200191611309565b820191906000526020600020905b8154815290600101906020018083116112ec57829003601f168201915b505050505081565b600081600360003373ffffffffffffffffffffffffffffffffffffffff1673ffffffffffffffffffffffffffffffffffffffff16815260200190815260200160002060008282546113629190612e8d565b9250508190555081600360008573ffffffffffffffffffffffffffffffffffffffff1673ffffffffffffffffffffffffffffffffffffffff168152602001908152602001600020600082825401925050819055508273ffffffffffffffffffffffffffffffffffffffff163373ffffffffffffffffffffffffffffffffffffffff167fddf252ad1be2c89b69c2b068fc378daa952ba7f163c4a11628f55a4df523b3ef846040516114139190612bc6565b60405180910390a36001905092915050565b6000806002549050600081146114565761145161144061072a565b8285611ea99092919063ffffffff16565b611458565b825b915050919050565b600061146b846109a2565b90508173ffffffffffffffffffffffffffffffffffffffff163373ffffffffffffffffffffffffffffffffffffffff16146115d7576000600460008473ffffffffffffffffffffffffffffffffffffffff1673ffffffffffffffffffffffffffffffffffffffff16815260200190815260200160002060003373ffffffffffffffffffffffffffffffffffffffff1673ffffffffffffffffffffffffffffffffffffffff1681526020019081526020016000205490507fffffffffffffffffffffffffffffffffffffffffffffffffffffffffffffffff81146115d55781816115549190612e8d565b600460008573ffffffffffffffffffffffffffffffffffffffff1673ffffffffffffffffffffffffffffffffffffffff16815260200190815260200160002060003373ffffffffffffffffffffffffffffffffffffffff1673ffffffffffffffffffffffffffffffffffffffff168152602001908152602001600020819055505b505b6115e184826121a8565b6115eb82826121ac565b8173ffffffffffffffffffffffffffffffffffffffff168373ffffffffffffffffffffffffffffffffffffffff163373ffffffffffffffffffffffffffffffffffffffff167ffbde797d201c681b91056529119e0b02407c7bb96a4a2c75c01fc9667232c8db8785604051611661929190612be1565b60405180910390a46116b483857f000000000000000000000000000000000000000000000000000000000000000073ffffffffffffffffffffffffffffffffffffffff1661227c9092919063ffffffff16565b9392505050565b60008173ffffffffffffffffffffffffffffffffffffffff163373ffffffffffffffffffffffffffffffffffffffff1614611827576000600460008473ffffffffffffffffffffffffffffffffffffffff1673ffffffffffffffffffffffffffffffffffffffff16815260200190815260200160002060003373ffffffffffffffffffffffffffffffffffffffff1673ffffffffffffffffffffffffffffffffffffffff1681526020019081526020016000205490507fffffffffffffffffffffffffffffffffffffffffffffffffffffffffffffffff81146118255784816117a49190612e8d565b600460008573ffffffffffffffffffffffffffffffffffffffff1673ffffffffffffffffffffffffffffffffffffffff16815260200190815260200160002060003373ffffffffffffffffffffffffffffffffffffffff1673ffffffffffffffffffffffffffffffffffffffff168152602001908152602001600020819055505b505b600061183285610d91565b9150811415611876576040517f08c379a000000000000000000000000000000000000000000000000000000000815260040161186d90612b86565b60405180910390fd5b61188081856121a8565b61188a82856121ac565b8173ffffffffffffffffffffffffffffffffffffffff168373ffffffffffffffffffffffffffffffffffffffff163373ffffffffffffffffffffffffffffffffffffffff167ffbde797d201c681b91056529119e0b02407c7bb96a4a2c75c01fc9667232c8db8488604051611900929190612be1565b60405180910390a461195383827f000000000000000000000000000000000000000000000000000000000000000073ffffffffffffffffffffffffffffffffffffffff1661227c9092919063ffffffff16565b9392505050565b60007fffffffffffffffffffffffffffffffffffffffffffffffffffffffffffffffff9050919050565b6000806002549050600081146119b5576119b0816119a061072a565b85611e819092919063ffffffff16565b6119b7565b825b915050919050565b6000611a09600360008473ffffffffffffffffffffffffffffffffffffffff1673ffffffffffffffffffffffffffffffffffffffff16815260200190815260200160002054610875565b9050919050565b42841015611a53576040517f08c379a0000000000000000000000000000000000000000000000000000000008152600401611a4a90612ba6565b60405180910390fd5b60006001611a5f610c51565b7f6e71edae12b1b97f4d1f60370fef10105fa2faae0126114a169c64845d6126c98a8a8a600560008f73ffffffffffffffffffffffffffffffffffffffff1673ffffffffffffffffffffffffffffffffffffffff1681526020019081526020016000206000815480929190600101919050558b604051602001611ae796959493929190612990565b60405160208183030381529060405280519060200120604051602001611b0e9291906128df565b6040516020818303038152906040528051906020012085858560405160008152602001604052604051611b449493929190612a44565b6020604051602081039080840390855afa158015611b66573d6000803e3d6000fd5b505050602060405103519050600073ffffffffffffffffffffffffffffffffffffffff168173ffffffffffffffffffffffffffffffffffffffff1614158015611bda57508773ffffffffffffffffffffffffffffffffffffffff168173ffffffffffffffffffffffffffffffffffffffff16145b611c19576040517f08c379a0000000000000000000000000000000000000000000000000000000008152600401611c1090612b66565b60405180910390fd5b85600460008373ffffffffffffffffffffffffffffffffffffffff1673ffffffffffffffffffffffffffffffffffffffff16815260200190815260200160002060008973ffffffffffffffffffffffffffffffffffffffff1673ffffffffffffffffffffffffffffffffffffffff16815260200190815260200160002081905550508573ffffffffffffffffffffffffffffffffffffffff168773ffffffffffffffffffffffffffffffffffffffff167f8c5be1e5ebec7d5bd14f71427d1e84f3dd0314c0f7b2291e5b200ac8c7c3b92587604051611cf89190612bc6565b60405180910390a350505050505050565b6000600360008373ffffffffffffffffffffffffffffffffffffffff1673ffffffffffffffffffffffffffffffffffffffff168152602001908152602001600020549050919050565b6004602052816000526040600020602052806000526040600020600091509150505481565b6000611d8282611984565b9050919050565b611d91611f67565b73ffffffffffffffffffffffffffffffffffffffff16611daf61117e565b73ffffffffffffffffffffffffffffffffffffffff1614611e05576040517f08c379a0000000000000000000000000000000000000000000000000000000008152600401611dfc90612b46565b60405180910390fd5b600073ffffffffffffffffffffffffffffffffffffffff168173ffffffffffffffffffffffffffffffffffffffff161415611e75576040517f08c379a0000000000000000000000000000000000000000000000000000000008152600401611e6c90612ae6565b60405180910390fd5b611e7e816120e2565b50565b60008284029050828482041484151782151516611e9d57600080fd5b81810490509392505050565b60008284029050828482041484151782151516611ec557600080fd5b6001826001830304018115150290509392505050565b60007f8b73c3c69bb8fe3d512ecc4cf759cc79239f7b179b0ffacaa9a75d522b39400f6000604051611f0d91906128c8565b60405180910390207fc89efdaa54c0f20c7adf612882df0950f5a951637e0307cdcb4c672f298b8bc64630604051602001611f4c9594939291906129f1565b60405160208183030381529060405280519060200120905090565b600033905090565b60006040517f23b872dd0000000000000000000000000000000000000000000000000000000081528460048201528360248201528260448201526020600060648360008a5af13d15601f3d1160016000511416171691505080612007576040517f08c379a0000000000000000000000000000000000000000000000000000000008152600401611ffe90612b06565b60405180910390fd5b5050505050565b80600260008282546120209190612c6c565b9250508190555080600360008473ffffffffffffffffffffffffffffffffffffffff1673ffffffffffffffffffffffffffffffffffffffff168152602001908152602001600020600082825401925050819055508173ffffffffffffffffffffffffffffffffffffffff16600073ffffffffffffffffffffffffffffffffffffffff167fddf252ad1be2c89b69c2b068fc378daa952ba7f163c4a11628f55a4df523b3ef836040516120d29190612bc6565b60405180910390a35050565b5050565b6000600660009054906101000a900473ffffffffffffffffffffffffffffffffffffffff16905081600660006101000a81548173ffffffffffffffffffffffffffffffffffffffff021916908373ffffffffffffffffffffffffffffffffffffffff1602179055508173ffffffffffffffffffffffffffffffffffffffff168173ffffffffffffffffffffffffffffffffffffffff167f8be0079c531659141344cd1fd0a4f28419497f9722a3daafe3b4186f6b6457e060405160405180910390a35050565b5050565b80600360008473ffffffffffffffffffffffffffffffffffffffff1673ffffffffffffffffffffffffffffffffffffffff16815260200190815260200160002060008282546121fb9190612e8d565b9250508190555080600260008282540392505081905550600073ffffffffffffffffffffffffffffffffffffffff168273ffffffffffffffffffffffffffffffffffffffff167fddf252ad1be2c89b69c2b068fc378daa952ba7f163c4a11628f55a4df523b3ef836040516122709190612bc6565b60405180910390a35050565b60006040517fa9059cbb000000000000000000000000000000000000000000000000000000008152836004820152826024820152602060006044836000895af13d15601f3d116001600051141617169150508061230e576040517f08c379a000000000000000000000000000000000000000000000000000000000815260040161230590612b26565b60405180910390fd5b50505050565b600081359050612323816131c6565b92915050565b600081519050612338816131dd565b92915050565b60008135905061234d816131f4565b92915050565b6000813590506123628161320b565b92915050565b6000815190506123778161320b565b92915050565b60008135905061238c81613222565b92915050565b6000815190506123a181613222565b92915050565b6000602082840312156123b957600080fd5b60006123c784828501612314565b91505092915050565b600080604083850312156123e357600080fd5b60006123f185828601612314565b925050602061240285828601612314565b9150509250929050565b60008060006060848603121561242157600080fd5b600061242f86828701612314565b935050602061244086828701612314565b925050604061245186828701612353565b9150509250925092565b600080600080600080600060e0888a03121561247657600080fd5b60006124848a828b01612314565b97505060206124958a828b01612314565b96505060406124a68a828b01612353565b95505060606124b78a828b01612353565b94505060806124c88a828b0161237d565b93505060a06124d98a828b0161233e565b92505060c06124ea8a828b0161233e565b91505092959891949750929550565b6000806040838503121561250c57600080fd5b600061251a85828601612314565b925050602061252b85828601612353565b9150509250929050565b60006020828403121561254757600080fd5b600061255584828501612329565b91505092915050565b60006020828403121561257057600080fd5b600061257e84828501612353565b91505092915050565b60006020828403121561259957600080fd5b60006125a784828501612368565b91505092915050565b600080604083850312156125c357600080fd5b60006125d185828601612353565b92505060206125e285828601612314565b9150509250929050565b60008060006060848603121561260157600080fd5b600061260f86828701612353565b935050602061262086828701612314565b925050604061263186828701612314565b9150509250925092565b60006020828403121561264d57600080fd5b600061265b84828501612392565b91505092915050565b61266d81612ec1565b82525050565b61267c81612ed3565b82525050565b61268b81612edf565b82525050565b6126a261269d82612edf565b612fa9565b82525050565b600081546126b581612f77565b6126bf8186612c45565b945060018216600081146126da57600181146126eb5761271e565b60ff1983168652818601935061271e565b6126f485612c25565b60005b83811015612716578154818901526001820191506020810190506126f7565b838801955050505b50505092915050565b61273081612f20565b82525050565b600061274182612c3a565b61274b8185612c50565b935061275b818560208601612f44565b61276481613011565b840191505092915050565b600061277c600b83612c50565b91506127878261302f565b602082019050919050565b600061279f602683612c50565b91506127aa82613058565b604082019050919050565b60006127c2600283612c61565b91506127cd826130a7565b600282019050919050565b60006127e5601483612c50565b91506127f0826130d0565b602082019050919050565b6000612808600f83612c50565b9150612813826130f9565b602082019050919050565b600061282b602083612c50565b915061283682613122565b602082019050919050565b600061284e600e83612c50565b91506128598261314b565b602082019050919050565b6000612871600b83612c50565b915061287c82613174565b602082019050919050565b6000612894601783612c50565b915061289f8261319d565b602082019050919050565b6128b381612f09565b82525050565b6128c281612f13565b82525050565b60006128d482846126a8565b915081905092915050565b60006128ea826127b5565b91506128f68285612691565b6020820191506129068284612691565b6020820191508190509392505050565b600060208201905061292b6000830184612664565b92915050565b60006040820190506129466000830185612664565b61295360208301846128aa565b9392505050565b600060208201905061296f6000830184612673565b92915050565b600060208201905061298a6000830184612682565b92915050565b600060c0820190506129a56000830189612682565b6129b26020830188612664565b6129bf6040830187612664565b6129cc60608301866128aa565b6129d960808301856128aa565b6129e660a08301846128aa565b979650505050505050565b600060a082019050612a066000830188612682565b612a136020830187612682565b612a206040830186612682565b612a2d60608301856128aa565b612a3a6080830184612664565b9695505050505050565b6000608082019050612a596000830187612682565b612a6660208301866128b9565b612a736040830185612682565b612a806060830184612682565b95945050505050565b6000602082019050612a9e6000830184612727565b92915050565b60006020820190508181036000830152612abe8184612736565b905092915050565b60006020820190508181036000830152612adf8161276f565b9050919050565b60006020820190508181036000830152612aff81612792565b9050919050565b60006020820190508181036000830152612b1f816127d8565b9050919050565b60006020820190508181036000830152612b3f816127fb565b9050919050565b60006020820190508181036000830152612b5f8161281e565b9050919050565b60006020820190508181036000830152612b7f81612841565b9050919050565b60006020820190508181036000830152612b9f81612864565b9050919050565b60006020820190508181036000830152612bbf81612887565b9050919050565b6000602082019050612bdb60008301846128aa565b92915050565b6000604082019050612bf660008301856128aa565b612c0360208301846128aa565b9392505050565b6000602082019050612c1f60008301846128b9565b92915050565b60008190508160005260206000209050919050565b600081519050919050565b600081905092915050565b600082825260208201905092915050565b600081905092915050565b6000612c7782612f09565b9150612c8283612f09565b9250827fffffffffffffffffffffffffffffffffffffffffffffffffffffffffffffffff03821115612cb757612cb6612fb3565b5b828201905092915050565b6000808291508390505b6001851115612d0c57808604811115612ce857612ce7612fb3565b5b6001851615612cf75780820291505b8081029050612d0585613022565b9450612ccc565b94509492505050565b6000612d2082612f09565b9150612d2b83612f13565b9250612d587fffffffffffffffffffffffffffffffffffffffffffffffffffffffffffffffff8484612d60565b905092915050565b600082612d705760019050612e2c565b81612d7e5760009050612e2c565b8160018114612d945760028114612d9e57612dcd565b6001915050612e2c565b60ff841115612db057612daf612fb3565b5b8360020a915084821115612dc757612dc6612fb3565b5b50612e2c565b5060208310610133831016604e8410600b8410161715612e025782820a905083811115612dfd57612dfc612fb3565b5b612e2c565b612e0f8484846001612cc2565b92509050818404811115612e2657612e25612fb3565b5b81810290505b9392505050565b6000612e3e82612f09565b9150612e4983612f09565b9250817fffffffffffffffffffffffffffffffffffffffffffffffffffffffffffffffff0483118215151615612e8257612e81612fb3565b5b828202905092915050565b6000612e9882612f09565b9150612ea383612f09565b925082821015612eb657612eb5612fb3565b5b828203905092915050565b6000612ecc82612ee9565b9050919050565b60008115159050919050565b6000819050919050565b600073ffffffffffffffffffffffffffffffffffffffff82169050919050565b6000819050919050565b600060ff82169050919050565b6000612f2b82612f32565b9050919050565b6000612f3d82612ee9565b9050919050565b60005b83811015612f62578082015181840152602081019050612f47565b83811115612f71576000848401525b50505050565b60006002820490506001821680612f8f57607f821691505b60208210811415612fa357612fa2612fe2565b5b50919050565b6000819050919050565b7f4e487b7100000000000000000000000000000000000000000000000000000000600052601160045260246000fd5b7f4e487b7100000000000000000000000000000000000000000000000000000000600052602260045260246000fd5b6000601f19601f8301169050919050565b60008160011c9050919050565b7f5a45524f5f534841524553000000000000000000000000000000000000000000600082015250565b7f4f776e61626c653a206e6577206f776e657220697320746865207a65726f206160008201527f6464726573730000000000000000000000000000000000000000000000000000602082015250565b7f1901000000000000000000000000000000000000000000000000000000000000600082015250565b7f5452414e534645525f46524f4d5f4641494c4544000000000000000000000000600082015250565b7f5452414e534645525f4641494c45440000000000000000000000000000000000600082015250565b7f4f776e61626c653a2063616c6c6572206973206e6f7420746865206f776e6572600082015250565b7f494e56414c49445f5349474e4552000000000000000000000000000000000000600082015250565b7f5a45524f5f415353455453000000000000000000000000000000000000000000600082015250565b7f5045524d49545f444541444c494e455f45585049524544000000000000000000600082015250565b6131cf81612ec1565b81146131da57600080fd5b50565b6131e681612ed3565b81146131f157600080fd5b50565b6131fd81612edf565b811461320857600080fd5b50565b61321481612f09565b811461321f57600080fd5b50565b61322b81612f13565b811461323657600080fd5b5056fea2646970667358221220c9f6e3c4a0150404df23f862c789008277ec2a164d688f713483de0c2370355c64736f6c63430008010033",
  "linkReferences": {},
  "deployedLinkReferences": {}
}