{
  "_format": "hh-sol-artifact-1",
  "contractName": "Liquid",
  "sourceName": "contracts/Liquid.sol",
  "abi": [
    {
      "inputs": [
        {
          "internalType": "contract ERC20",
          "name": "_asset",
          "type": "address"
        }
      ],
      "stateMutability": "nonpayable",
      "type": "constructor"
    },
    {
      "anonymous": false,
      "inputs": [
        {
          "indexed": true,
          "internalType": "address",
          "name": "owner",
          "type": "address"
        },
        {
          "indexed": true,
          "internalType": "address",
          "name": "spender",
          "type": "address"
        },
        {
          "indexed": false,
          "internalType": "uint256",
          "name": "amount",
          "type": "uint256"
        }
      ],
      "name": "Approval",
      "type": "event"
    },
    {
      "anonymous": false,
      "inputs": [
        {
          "indexed": true,
          "internalType": "address",
          "name": "caller",
          "type": "address"
        },
        {
          "indexed": true,
          "internalType": "address",
          "name": "owner",
          "type": "address"
        },
        {
          "indexed": false,
          "internalType": "uint256",
          "name": "assets",
          "type": "uint256"
        },
        {
          "indexed": false,
          "internalType": "uint256",
          "name": "shares",
          "type": "uint256"
        }
      ],
      "name": "Deposit",
      "type": "event"
    },
    {
      "anonymous": false,
      "inputs": [
        {
          "indexed": true,
          "internalType": "address",
          "name": "previousOwner",
          "type": "address"
        },
        {
          "indexed": true,
          "internalType": "address",
          "name": "newOwner",
          "type": "address"
        }
      ],
      "name": "OwnershipTransferred",
      "type": "event"
    },
    {
      "anonymous": false,
      "inputs": [
        {
          "indexed": false,
          "internalType": "address",
          "name": "recipient",
          "type": "address"
        },
        {
          "indexed": false,
          "internalType": "uint256",
          "name": "amount",
          "type": "uint256"
        }
      ],
      "name": "Pull",
      "type": "event"
    },
    {
      "anonymous": false,
      "inputs": [
        {
          "indexed": true,
          "internalType": "address",
          "name": "from",
          "type": "address"
        },
        {
          "indexed": true,
          "internalType": "address",
          "name": "to",
          "type": "address"
        },
        {
          "indexed": false,
          "internalType": "uint256",
          "name": "amount",
          "type": "uint256"
        }
      ],
      "name": "Transfer",
      "type": "event"
    },
    {
      "anonymous": false,
      "inputs": [
        {
          "indexed": true,
          "internalType": "address",
          "name": "caller",
          "type": "address"
        },
        {
          "indexed": true,
          "internalType": "address",
          "name": "receiver",
          "type": "address"
        },
        {
          "indexed": true,
          "internalType": "address",
          "name": "owner",
          "type": "address"
        },
        {
          "indexed": false,
          "internalType": "uint256",
          "name": "assets",
          "type": "uint256"
        },
        {
          "indexed": false,
          "internalType": "uint256",
          "name": "shares",
          "type": "uint256"
        }
      ],
      "name": "Withdraw",
      "type": "event"
    },
    {
      "inputs": [],
      "name": "DOMAIN_SEPARATOR",
      "outputs": [
        {
          "internalType": "bytes32",
          "name": "",
          "type": "bytes32"
        }
      ],
      "stateMutability": "view",
      "type": "function"
    },
    {
      "inputs": [
        {
          "internalType": "address",
          "name": "",
          "type": "address"
        },
        {
          "internalType": "address",
          "name": "",
          "type": "address"
        }
      ],
      "name": "allowance",
      "outputs": [
        {
          "internalType": "uint256",
          "name": "",
          "type": "uint256"
        }
      ],
      "stateMutability": "view",
      "type": "function"
    },
    {
      "inputs": [
        {
          "internalType": "address",
          "name": "spender",
          "type": "address"
        },
        {
          "internalType": "uint256",
          "name": "amount",
          "type": "uint256"
        }
      ],
      "name": "approve",
      "outputs": [
        {
          "internalType": "bool",
          "name": "",
          "type": "bool"
        }
      ],
      "stateMutability": "nonpayable",
      "type": "function"
    },
    {
      "inputs": [],
      "name": "asset",
      "outputs": [
        {
          "internalType": "contract ERC20",
          "name": "",
          "type": "address"
        }
      ],
      "stateMutability": "view",
      "type": "function"
    },
    {
      "inputs": [
        {
          "internalType": "address",
          "name": "",
          "type": "address"
        }
      ],
      "name": "balanceOf",
      "outputs": [
        {
          "internalType": "uint256",
          "name": "",
          "type": "uint256"
        }
      ],
      "stateMutability": "view",
      "type": "function"
    },
    {
      "inputs": [
        {
          "internalType": "uint256",
          "name": "shares",
          "type": "uint256"
        }
      ],
      "name": "convertToAssets",
      "outputs": [
        {
          "internalType": "uint256",
          "name": "",
          "type": "uint256"
        }
      ],
      "stateMutability": "view",
      "type": "function"
    },
    {
      "inputs": [
        {
          "internalType": "uint256",
          "name": "assets",
          "type": "uint256"
        }
      ],
      "name": "convertToShares",
      "outputs": [
        {
          "internalType": "uint256",
          "name": "",
          "type": "uint256"
        }
      ],
      "stateMutability": "view",
      "type": "function"
    },
    {
      "inputs": [],
      "name": "decimals",
      "outputs": [
        {
          "internalType": "uint8",
          "name": "",
          "type": "uint8"
        }
      ],
      "stateMutability": "view",
      "type": "function"
    },
    {
      "inputs": [
        {
          "internalType": "uint256",
          "name": "assets",
          "type": "uint256"
        },
        {
          "internalType": "address",
          "name": "receiver",
          "type": "address"
        }
      ],
      "name": "deposit",
      "outputs": [
        {
          "internalType": "uint256",
          "name": "shares",
          "type": "uint256"
        }
      ],
      "stateMutability": "nonpayable",
      "type": "function"
    },
    {
      "inputs": [
        {
          "internalType": "address",
          "name": "",
          "type": "address"
        }
      ],
      "name": "maxDeposit",
      "outputs": [
        {
          "internalType": "uint256",
          "name": "",
          "type": "uint256"
        }
      ],
      "stateMutability": "view",
      "type": "function"
    },
    {
      "inputs": [
        {
          "internalType": "address",
          "name": "",
          "type": "address"
        }
      ],
      "name": "maxMint",
      "outputs": [
        {
          "internalType": "uint256",
          "name": "",
          "type": "uint256"
        }
      ],
      "stateMutability": "view",
      "type": "function"
    },
    {
      "inputs": [
        {
          "internalType": "address",
          "name": "owner",
          "type": "address"
        }
      ],
      "name": "maxRedeem",
      "outputs": [
        {
          "internalType": "uint256",
          "name": "",
          "type": "uint256"
        }
      ],
      "stateMutability": "view",
      "type": "function"
    },
    {
      "inputs": [
        {
          "internalType": "address",
          "name": "owner",
          "type": "address"
        }
      ],
      "name": "maxWithdraw",
      "outputs": [
        {
          "internalType": "uint256",
          "name": "",
          "type": "uint256"
        }
      ],
      "stateMutability": "view",
      "type": "function"
    },
    {
      "inputs": [
        {
          "internalType": "uint256",
          "name": "shares",
          "type": "uint256"
        },
        {
          "internalType": "address",
          "name": "receiver",
          "type": "address"
        }
      ],
      "name": "mint",
      "outputs": [
        {
          "internalType": "uint256",
          "name": "assets",
          "type": "uint256"
        }
      ],
      "stateMutability": "nonpayable",
      "type": "function"
    },
    {
      "inputs": [],
      "name": "name",
      "outputs": [
        {
          "internalType": "string",
          "name": "",
          "type": "string"
        }
      ],
      "stateMutability": "view",
      "type": "function"
    },
    {
      "inputs": [
        {
          "internalType": "address",
          "name": "",
          "type": "address"
        }
      ],
      "name": "nonces",
      "outputs": [
        {
          "internalType": "uint256",
          "name": "",
          "type": "uint256"
        }
      ],
      "stateMutability": "view",
      "type": "function"
    },
    {
      "inputs": [],
      "name": "owner",
      "outputs": [
        {
          "internalType": "address",
          "name": "",
          "type": "address"
        }
      ],
      "stateMutability": "view",
      "type": "function"
    },
    {
      "inputs": [
        {
          "internalType": "address",
          "name": "owner",
          "type": "address"
        },
        {
          "internalType": "address",
          "name": "spender",
          "type": "address"
        },
        {
          "internalType": "uint256",
          "name": "value",
          "type": "uint256"
        },
        {
          "internalType": "uint256",
          "name": "deadline",
          "type": "uint256"
        },
        {
          "internalType": "uint8",
          "name": "v",
          "type": "uint8"
        },
        {
          "internalType": "bytes32",
          "name": "r",
          "type": "bytes32"
        },
        {
          "internalType": "bytes32",
          "name": "s",
          "type": "bytes32"
        }
      ],
      "name": "permit",
      "outputs": [],
      "stateMutability": "nonpayable",
      "type": "function"
    },
    {
      "inputs": [
        {
          "internalType": "uint256",
          "name": "assets",
          "type": "uint256"
        }
      ],
      "name": "previewDeposit",
      "outputs": [
        {
          "internalType": "uint256",
          "name": "",
          "type": "uint256"
        }
      ],
      "stateMutability": "view",
      "type": "function"
    },
    {
      "inputs": [
        {
          "internalType": "uint256",
          "name": "shares",
          "type": "uint256"
        }
      ],
      "name": "previewMint",
      "outputs": [
        {
          "internalType": "uint256",
          "name": "",
          "type": "uint256"
        }
      ],
      "stateMutability": "view",
      "type": "function"
    },
    {
      "inputs": [
        {
          "internalType": "uint256",
          "name": "shares",
          "type": "uint256"
        }
      ],
      "name": "previewRedeem",
      "outputs": [
        {
          "internalType": "uint256",
          "name": "",
          "type": "uint256"
        }
      ],
      "stateMutability": "view",
      "type": "function"
    },
    {
      "inputs": [
        {
          "internalType": "uint256",
          "name": "assets",
          "type": "uint256"
        }
      ],
      "name": "previewWithdraw",
      "outputs": [
        {
          "internalType": "uint256",
          "name": "",
          "type": "uint256"
        }
      ],
      "stateMutability": "view",
      "type": "function"
    },
    {
      "inputs": [
        {
          "internalType": "uint256",
          "name": "_amount",
          "type": "uint256"
        }
      ],
      "name": "pullToStake",
      "outputs": [],
      "stateMutability": "nonpayable",
      "type": "function"
    },
    {
      "inputs": [
        {
          "internalType": "uint256",
          "name": "shares",
          "type": "uint256"
        },
        {
          "internalType": "address",
          "name": "receiver",
          "type": "address"
        },
        {
          "internalType": "address",
          "name": "owner",
          "type": "address"
        }
      ],
      "name": "redeem",
      "outputs": [
        {
          "internalType": "uint256",
          "name": "assets",
          "type": "uint256"
        }
      ],
      "stateMutability": "nonpayable",
      "type": "function"
    },
    {
      "inputs": [],
      "name": "renounceOwnership",
      "outputs": [],
      "stateMutability": "nonpayable",
      "type": "function"
    },
    {
      "inputs": [],
      "name": "symbol",
      "outputs": [
        {
          "internalType": "string",
          "name": "",
          "type": "string"
        }
      ],
      "stateMutability": "view",
      "type": "function"
    },
    {
      "inputs": [],
      "name": "totalAssets",
      "outputs": [
        {
          "internalType": "uint256",
          "name": "",
          "type": "uint256"
        }
      ],
      "stateMutability": "view",
      "type": "function"
    },
    {
      "inputs": [],
      "name": "totalSupply",
      "outputs": [
        {
          "internalType": "uint256",
          "name": "",
          "type": "uint256"
        }
      ],
      "stateMutability": "view",
      "type": "function"
    },
    {
      "inputs": [
        {
          "internalType": "address",
          "name": "to",
          "type": "address"
        },
        {
          "internalType": "uint256",
          "name": "amount",
          "type": "uint256"
        }
      ],
      "name": "transfer",
      "outputs": [
        {
          "internalType": "bool",
          "name": "",
          "type": "bool"
        }
      ],
      "stateMutability": "nonpayable",
      "type": "function"
    },
    {
      "inputs": [
        {
          "internalType": "address",
          "name": "from",
          "type": "address"
        },
        {
          "internalType": "address",
          "name": "to",
          "type": "address"
        },
        {
          "internalType": "uint256",
          "name": "amount",
          "type": "uint256"
        }
      ],
      "name": "transferFrom",
      "outputs": [
        {
          "internalType": "bool",
          "name": "",
          "type": "bool"
        }
      ],
      "stateMutability": "nonpayable",
      "type": "function"
    },
    {
      "inputs": [
        {
          "internalType": "address",
          "name": "newOwner",
          "type": "address"
        }
      ],
      "name": "transferOwnership",
      "outputs": [],
      "stateMutability": "nonpayable",
      "type": "function"
    },
    {
      "inputs": [
        {
          "internalType": "uint256",
          "name": "_amount",
          "type": "uint256"
        }
      ],
      "name": "updateEarnings",
      "outputs": [],
      "stateMutability": "nonpayable",
      "type": "function"
    },
    {
      "inputs": [
        {
          "internalType": "uint256",
          "name": "assets",
          "type": "uint256"
        },
        {
          "internalType": "address",
          "name": "receiver",
          "type": "address"
        },
        {
          "internalType": "address",
          "name": "owner",
          "type": "address"
        }
      ],
      "name": "withdraw",
      "outputs": [
        {
          "internalType": "uint256",
          "name": "shares",
          "type": "uint256"
        }
      ],
      "stateMutability": "nonpayable",
      "type": "function"
    }
  ],
  "bytecode": "0x6101006040523480156200001257600080fd5b5060405162003b0a38038062003b0a833981810160405281019062000038919062000433565b806040518060400160405280600d81526020017f4c69717569645374616b696e67000000000000000000000000000000000000008152506040518060400160405280600281526020017f4c5300000000000000000000000000000000000000000000000000000000000081525081818473ffffffffffffffffffffffffffffffffffffffff1663313ce5676040518163ffffffff1660e01b815260040160206040518083038186803b158015620000ee57600080fd5b505afa15801562000103573d6000803e3d6000fd5b505050506040513d601f19601f820116820180604052508101906200012991906200045f565b82600090805190602001906200014192919062000355565b5081600190805190602001906200015a92919062000355565b508060ff1660808160ff1660f81b815250504660a0818152505062000184620001f760201b60201c565b60c081815250505050508273ffffffffffffffffffffffffffffffffffffffff1660e08173ffffffffffffffffffffffffffffffffffffffff1660601b81525050505050620001e8620001dc6200028760201b60201c565b6200028f60201b60201c565b600060078190555050620006e1565b60007f8b73c3c69bb8fe3d512ecc4cf759cc79239f7b179b0ffacaa9a75d522b39400f60006040516200022b919062000549565b60405180910390207fc89efdaa54c0f20c7adf612882df0950f5a951637e0307cdcb4c672f298b8bc646306040516020016200026c95949392919062000562565b60405160208183030381529060405280519060200120905090565b600033905090565b6000600660009054906101000a900473ffffffffffffffffffffffffffffffffffffffff16905081600660006101000a81548173ffffffffffffffffffffffffffffffffffffffff021916908373ffffffffffffffffffffffffffffffffffffffff1602179055508173ffffffffffffffffffffffffffffffffffffffff168173ffffffffffffffffffffffffffffffffffffffff167f8be0079c531659141344cd1fd0a4f28419497f9722a3daafe3b4186f6b6457e060405160405180910390a35050565b828054620003639062000648565b90600052602060002090601f016020900481019282620003875760008555620003d3565b82601f10620003a257805160ff1916838001178555620003d3565b82800160010185558215620003d3579182015b82811115620003d2578251825591602001919060010190620003b5565b5b509050620003e29190620003e6565b5090565b5b8082111562000401576000816000905550600101620003e7565b5090565b6000815190506200041681620006ad565b92915050565b6000815190506200042d81620006c7565b92915050565b6000602082840312156200044657600080fd5b6000620004568482850162000405565b91505092915050565b6000602082840312156200047257600080fd5b600062000482848285016200041c565b91505092915050565b6200049681620005df565b82525050565b620004a781620005f3565b82525050565b60008154620004bc8162000648565b620004c88186620005d4565b94506001821660008114620004e65760018114620004f8576200052f565b60ff198316865281860193506200052f565b6200050385620005bf565b60005b83811015620005275781548189015260018201915060208101905062000506565b838801955050505b50505092915050565b620005438162000631565b82525050565b6000620005578284620004ad565b915081905092915050565b600060a0820190506200057960008301886200049c565b6200058860208301876200049c565b6200059760408301866200049c565b620005a6606083018562000538565b620005b560808301846200048b565b9695505050505050565b60008190508160005260206000209050919050565b600081905092915050565b6000620005ec8262000611565b9050919050565b6000819050919050565b60006200060a82620005df565b9050919050565b600073ffffffffffffffffffffffffffffffffffffffff82169050919050565b6000819050919050565b600060ff82169050919050565b600060028204905060018216806200066157607f821691505b602082108114156200067857620006776200067e565b5b50919050565b7f4e487b7100000000000000000000000000000000000000000000000000000000600052602260045260246000fd5b620006b881620005fd565b8114620006c457600080fd5b50565b620006d2816200063b565b8114620006de57600080fd5b50565b60805160f81c60a05160c05160e05160601c6133b1620007596000396000818161073101528181610cb001528181610cd601528181610e2101528181610f8b015281816111ce01528181611681015281816119200152611f8501526000610c8901526000610c5501526000610c2f01526133b16000f3fe608060405234801561001057600080fd5b50600436106101fb5760003560e01c8063715018a61161011a578063ba087652116100ad578063d505accf1161007c578063d505accf14610662578063d905777e1461067e578063dd62ed3e146106ae578063ef8b30f7146106de578063f2fde38b1461070e576101fb565b8063ba087652146105a2578063c63d75b6146105d2578063c6e6f59214610602578063ce96cb7714610632576101fb565b806395d89b41116100e957806395d89b41146104f4578063a9059cbb14610512578063b3d7f6b914610542578063b460af9414610572576101fb565b8063715018a61461046c5780637ecebe00146104765780638da5cb5b146104a657806394bf804d146104c4576101fb565b80633644e5151161019257806364181e791161016157806364181e79146103d45780636e553f65146103f05780636ebd6dec1461042057806370a082311461043c576101fb565b80633644e5151461033857806338d52e0f14610356578063402d267d146103745780634cdad506146103a4576101fb565b80630a28a477116101ce5780630a28a4771461029c57806318160ddd146102cc57806323b872dd146102ea578063313ce5671461031a576101fb565b806301e1d1141461020057806306fdde031461021e57806307a2d13a1461023c578063095ea7b31461026c575b600080fd5b61020861072a565b6040516102159190612ca8565b60405180910390f35b6102266107e7565b6040516102339190612b86565b60405180910390f35b61025660048036038101906102519190612640565b610875565b6040516102639190612ca8565b60405180910390f35b610286600480360381019061028191906125db565b6108b0565b6040516102939190612a3c565b60405180910390f35b6102b660048036038101906102b19190612640565b6109a2565b6040516102c39190612ca8565b60405180910390f35b6102d46109dd565b6040516102e19190612ca8565b60405180910390f35b61030460048036038101906102ff91906124ee565b6109e3565b6040516103119190612a3c565b60405180910390f35b610322610c2d565b60405161032f9190612cec565b60405180910390f35b610340610c51565b60405161034d9190612a57565b60405180910390f35b61035e610cae565b60405161036b9190612b6b565b60405180910390f35b61038e60048036038101906103899190612489565b610cd2565b60405161039b9190612ca8565b60405180910390f35b6103be60048036038101906103b99190612640565b610d91565b6040516103cb9190612ca8565b60405180910390f35b6103ee60048036038101906103e99190612640565b610da3565b005b61040a60048036038101906104059190612692565b610f33565b6040516104179190612ca8565b60405180910390f35b61043a60048036038101906104359190612640565b611051565b005b61045660048036038101906104519190612489565b6110d7565b6040516104639190612ca8565b60405180910390f35b6104746110ef565b005b610490600480360381019061048b9190612489565b611177565b60405161049d9190612ca8565b60405180910390f35b6104ae61118f565b6040516104bb91906129f8565b60405180910390f35b6104de60048036038101906104d99190612692565b6111b9565b6040516104eb9190612ca8565b60405180910390f35b6104fc611294565b6040516105099190612b86565b60405180910390f35b61052c600480360381019061052791906125db565b611322565b6040516105399190612a3c565b60405180910390f35b61055c60048036038101906105579190612640565b611436565b6040516105699190612ca8565b60405180910390f35b61058c600480360381019061058791906126ce565b611471565b6040516105999190612ca8565b60405180910390f35b6105bc60048036038101906105b791906126ce565b6116cc565b6040516105c99190612ca8565b60405180910390f35b6105ec60048036038101906105e79190612489565b61196b565b6040516105f99190612ca8565b60405180910390f35b61061c60048036038101906106179190612640565b611995565b6040516106299190612ca8565b60405180910390f35b61064c60048036038101906106479190612489565b6119d0565b6040516106599190612ca8565b60405180910390f35b61067c6004803603810190610677919061253d565b611a21565b005b61069860048036038101906106939190612489565b611d1a565b6040516106a59190612ca8565b60405180910390f35b6106c860048036038101906106c391906124b2565b611d63565b6040516106d59190612ca8565b60405180910390f35b6106f860048036038101906106f39190612640565b611d88565b6040516107059190612ca8565b60405180910390f35b61072860048036038101906107239190612489565b611d9a565b005b60006007547f000000000000000000000000000000000000000000000000000000000000000073ffffffffffffffffffffffffffffffffffffffff166370a08231306040518263ffffffff1660e01b815260040161078891906129f8565b60206040518083038186803b1580156107a057600080fd5b505afa1580156107b4573d6000803e3d6000fd5b505050506040513d601f19601f820116820180604052508101906107d89190612669565b6107e29190612d4e565b905090565b600080546107f49061308a565b80601f01602080910402602001604051908101604052809291908181526020018280546108209061308a565b801561086d5780601f106108425761010080835404028352916020019161086d565b820191906000526020600020905b81548152906001019060200180831161085057829003601f168201915b505050505081565b6000806002549050600081146108a6576108a161089061072a565b8285611e929092919063ffffffff16565b6108a8565b825b915050919050565b600081600460003373ffffffffffffffffffffffffffffffffffffffff1673ffffffffffffffffffffffffffffffffffffffff16815260200190815260200160002060008573ffffffffffffffffffffffffffffffffffffffff1673ffffffffffffffffffffffffffffffffffffffff168152602001908152602001600020819055508273ffffffffffffffffffffffffffffffffffffffff163373ffffffffffffffffffffffffffffffffffffffff167f8c5be1e5ebec7d5bd14f71427d1e84f3dd0314c0f7b2291e5b200ac8c7c3b925846040516109909190612ca8565b60405180910390a36001905092915050565b6000806002549050600081146109d3576109ce816109be61072a565b85611eba9092919063ffffffff16565b6109d5565b825b915050919050565b60025481565b600080600460008673ffffffffffffffffffffffffffffffffffffffff1673ffffffffffffffffffffffffffffffffffffffff16815260200190815260200160002060003373ffffffffffffffffffffffffffffffffffffffff1673ffffffffffffffffffffffffffffffffffffffff1681526020019081526020016000205490507fffffffffffffffffffffffffffffffffffffffffffffffffffffffffffffffff8114610b19578281610a989190612fa0565b600460008773ffffffffffffffffffffffffffffffffffffffff1673ffffffffffffffffffffffffffffffffffffffff16815260200190815260200160002060003373ffffffffffffffffffffffffffffffffffffffff1673ffffffffffffffffffffffffffffffffffffffff168152602001908152602001600020819055505b82600360008773ffffffffffffffffffffffffffffffffffffffff1673ffffffffffffffffffffffffffffffffffffffff1681526020019081526020016000206000828254610b689190612fa0565b9250508190555082600360008673ffffffffffffffffffffffffffffffffffffffff1673ffffffffffffffffffffffffffffffffffffffff168152602001908152602001600020600082825401925050819055508373ffffffffffffffffffffffffffffffffffffffff168573ffffffffffffffffffffffffffffffffffffffff167fddf252ad1be2c89b69c2b068fc378daa952ba7f163c4a11628f55a4df523b3ef85604051610c199190612ca8565b60405180910390a360019150509392505050565b7f000000000000000000000000000000000000000000000000000000000000000081565b60007f00000000000000000000000000000000000000000000000000000000000000004614610c8757610c82611eec565b610ca9565b7f00000000000000000000000000000000000000000000000000000000000000005b905090565b7f000000000000000000000000000000000000000000000000000000000000000081565b60007f000000000000000000000000000000000000000000000000000000000000000073ffffffffffffffffffffffffffffffffffffffff1663313ce5676040518163ffffffff1660e01b815260040160206040518083038186803b158015610d3a57600080fd5b505afa158015610d4e573d6000803e3d6000fd5b505050506040513d601f19601f82011682018060405250810190610d72919061271d565b600a610d7e9190612e28565b60fa610d8a9190612f46565b9050919050565b6000610d9c82610875565b9050919050565b610dab611f78565b73ffffffffffffffffffffffffffffffffffffffff16610dc961118f565b73ffffffffffffffffffffffffffffffffffffffff1614610e1f576040517f08c379a0000000000000000000000000000000000000000000000000000000008152600401610e1690612c28565b60405180910390fd5b7f000000000000000000000000000000000000000000000000000000000000000073ffffffffffffffffffffffffffffffffffffffff1663a9059cbb33836040518363ffffffff1660e01b8152600401610e7a929190612a13565b602060405180830381600087803b158015610e9457600080fd5b505af1158015610ea8573d6000803e3d6000fd5b505050506040513d601f19601f82011682018060405250810190610ecc9190612617565b50610ed5611f80565b610ede57600080fd5b8060076000828254610ef09190612d4e565b925050819055507fe1a5602e30931761352458316383b4fb6cb0f5ebe0b746c614d3e4836c4ccef53382604051610f28929190612a13565b60405180910390a150565b600080610f3f84611d88565b9150811415610f83576040517f08c379a0000000000000000000000000000000000000000000000000000000008152600401610f7a90612ba8565b60405180910390fd5b610fd03330857f000000000000000000000000000000000000000000000000000000000000000073ffffffffffffffffffffffffffffffffffffffff16612051909392919063ffffffff16565b610fda82826120f0565b8173ffffffffffffffffffffffffffffffffffffffff163373ffffffffffffffffffffffffffffffffffffffff167fdcbc1c05240f31ff3ad067ef1ee35ce4997762752e3a095284754544f4c709d78584604051611039929190612cc3565b60405180910390a361104b83826121c0565b92915050565b611059611f78565b73ffffffffffffffffffffffffffffffffffffffff1661107761118f565b73ffffffffffffffffffffffffffffffffffffffff16146110cd576040517f08c379a00000000000000000000000000000000000000000000000000000000081526004016110c490612c28565b60405180910390fd5b8060078190555050565b60036020528060005260406000206000915090505481565b6110f7611f78565b73ffffffffffffffffffffffffffffffffffffffff1661111561118f565b73ffffffffffffffffffffffffffffffffffffffff161461116b576040517f08c379a000000000000000000000000000000000000000000000000000000000815260040161116290612c28565b60405180910390fd5b61117560006121c4565b565b60056020528060005260406000206000915090505481565b6000600660009054906101000a900473ffffffffffffffffffffffffffffffffffffffff16905090565b60006111c483611436565b90506112133330837f000000000000000000000000000000000000000000000000000000000000000073ffffffffffffffffffffffffffffffffffffffff16612051909392919063ffffffff16565b61121d82846120f0565b8173ffffffffffffffffffffffffffffffffffffffff163373ffffffffffffffffffffffffffffffffffffffff167fdcbc1c05240f31ff3ad067ef1ee35ce4997762752e3a095284754544f4c709d7838660405161127c929190612cc3565b60405180910390a361128e81846121c0565b92915050565b600180546112a19061308a565b80601f01602080910402602001604051908101604052809291908181526020018280546112cd9061308a565b801561131a5780601f106112ef5761010080835404028352916020019161131a565b820191906000526020600020905b8154815290600101906020018083116112fd57829003601f168201915b505050505081565b600081600360003373ffffffffffffffffffffffffffffffffffffffff1673ffffffffffffffffffffffffffffffffffffffff16815260200190815260200160002060008282546113739190612fa0565b9250508190555081600360008573ffffffffffffffffffffffffffffffffffffffff1673ffffffffffffffffffffffffffffffffffffffff168152602001908152602001600020600082825401925050819055508273ffffffffffffffffffffffffffffffffffffffff163373ffffffffffffffffffffffffffffffffffffffff167fddf252ad1be2c89b69c2b068fc378daa952ba7f163c4a11628f55a4df523b3ef846040516114249190612ca8565b60405180910390a36001905092915050565b6000806002549050600081146114675761146261145161072a565b8285611eba9092919063ffffffff16565b611469565b825b915050919050565b600061147c846109a2565b90508173ffffffffffffffffffffffffffffffffffffffff163373ffffffffffffffffffffffffffffffffffffffff16146115e8576000600460008473ffffffffffffffffffffffffffffffffffffffff1673ffffffffffffffffffffffffffffffffffffffff16815260200190815260200160002060003373ffffffffffffffffffffffffffffffffffffffff1673ffffffffffffffffffffffffffffffffffffffff1681526020019081526020016000205490507fffffffffffffffffffffffffffffffffffffffffffffffffffffffffffffffff81146115e65781816115659190612fa0565b600460008573ffffffffffffffffffffffffffffffffffffffff1673ffffffffffffffffffffffffffffffffffffffff16815260200190815260200160002060003373ffffffffffffffffffffffffffffffffffffffff1673ffffffffffffffffffffffffffffffffffffffff168152602001908152602001600020819055505b505b6115f2848261228a565b6115fc828261228e565b8173ffffffffffffffffffffffffffffffffffffffff168373ffffffffffffffffffffffffffffffffffffffff163373ffffffffffffffffffffffffffffffffffffffff167ffbde797d201c681b91056529119e0b02407c7bb96a4a2c75c01fc9667232c8db8785604051611672929190612cc3565b60405180910390a46116c583857f000000000000000000000000000000000000000000000000000000000000000073ffffffffffffffffffffffffffffffffffffffff1661235e9092919063ffffffff16565b9392505050565b60008173ffffffffffffffffffffffffffffffffffffffff163373ffffffffffffffffffffffffffffffffffffffff1614611838576000600460008473ffffffffffffffffffffffffffffffffffffffff1673ffffffffffffffffffffffffffffffffffffffff16815260200190815260200160002060003373ffffffffffffffffffffffffffffffffffffffff1673ffffffffffffffffffffffffffffffffffffffff1681526020019081526020016000205490507fffffffffffffffffffffffffffffffffffffffffffffffffffffffffffffffff81146118365784816117b59190612fa0565b600460008573ffffffffffffffffffffffffffffffffffffffff1673ffffffffffffffffffffffffffffffffffffffff16815260200190815260200160002060003373ffffffffffffffffffffffffffffffffffffffff1673ffffffffffffffffffffffffffffffffffffffff168152602001908152602001600020819055505b505b600061184385610d91565b9150811415611887576040517f08c379a000000000000000000000000000000000000000000000000000000000815260040161187e90612c68565b60405180910390fd5b611891818561228a565b61189b828561228e565b8173ffffffffffffffffffffffffffffffffffffffff168373ffffffffffffffffffffffffffffffffffffffff163373ffffffffffffffffffffffffffffffffffffffff167ffbde797d201c681b91056529119e0b02407c7bb96a4a2c75c01fc9667232c8db8488604051611911929190612cc3565b60405180910390a461196483827f000000000000000000000000000000000000000000000000000000000000000073ffffffffffffffffffffffffffffffffffffffff1661235e9092919063ffffffff16565b9392505050565b60007fffffffffffffffffffffffffffffffffffffffffffffffffffffffffffffffff9050919050565b6000806002549050600081146119c6576119c1816119b161072a565b85611e929092919063ffffffff16565b6119c8565b825b915050919050565b6000611a1a600360008473ffffffffffffffffffffffffffffffffffffffff1673ffffffffffffffffffffffffffffffffffffffff16815260200190815260200160002054610875565b9050919050565b42841015611a64576040517f08c379a0000000000000000000000000000000000000000000000000000000008152600401611a5b90612c88565b60405180910390fd5b60006001611a70610c51565b7f6e71edae12b1b97f4d1f60370fef10105fa2faae0126114a169c64845d6126c98a8a8a600560008f73ffffffffffffffffffffffffffffffffffffffff1673ffffffffffffffffffffffffffffffffffffffff1681526020019081526020016000206000815480929190600101919050558b604051602001611af896959493929190612a72565b60405160208183030381529060405280519060200120604051602001611b1f9291906129c1565b6040516020818303038152906040528051906020012085858560405160008152602001604052604051611b559493929190612b26565b6020604051602081039080840390855afa158015611b77573d6000803e3d6000fd5b505050602060405103519050600073ffffffffffffffffffffffffffffffffffffffff168173ffffffffffffffffffffffffffffffffffffffff1614158015611beb57508773ffffffffffffffffffffffffffffffffffffffff168173ffffffffffffffffffffffffffffffffffffffff16145b611c2a576040517f08c379a0000000000000000000000000000000000000000000000000000000008152600401611c2190612c48565b60405180910390fd5b85600460008373ffffffffffffffffffffffffffffffffffffffff1673ffffffffffffffffffffffffffffffffffffffff16815260200190815260200160002060008973ffffffffffffffffffffffffffffffffffffffff1673ffffffffffffffffffffffffffffffffffffffff16815260200190815260200160002081905550508573ffffffffffffffffffffffffffffffffffffffff168773ffffffffffffffffffffffffffffffffffffffff167f8c5be1e5ebec7d5bd14f71427d1e84f3dd0314c0f7b2291e5b200ac8c7c3b92587604051611d099190612ca8565b60405180910390a350505050505050565b6000600360008373ffffffffffffffffffffffffffffffffffffffff1673ffffffffffffffffffffffffffffffffffffffff168152602001908152602001600020549050919050565b6004602052816000526040600020602052806000526040600020600091509150505481565b6000611d9382611995565b9050919050565b611da2611f78565b73ffffffffffffffffffffffffffffffffffffffff16611dc061118f565b73ffffffffffffffffffffffffffffffffffffffff1614611e16576040517f08c379a0000000000000000000000000000000000000000000000000000000008152600401611e0d90612c28565b60405180910390fd5b600073ffffffffffffffffffffffffffffffffffffffff168173ffffffffffffffffffffffffffffffffffffffff161415611e86576040517f08c379a0000000000000000000000000000000000000000000000000000000008152600401611e7d90612bc8565b60405180910390fd5b611e8f816121c4565b50565b60008284029050828482041484151782151516611eae57600080fd5b81810490509392505050565b60008284029050828482041484151782151516611ed657600080fd5b6001826001830304018115150290509392505050565b60007f8b73c3c69bb8fe3d512ecc4cf759cc79239f7b179b0ffacaa9a75d522b39400f6000604051611f1e91906129aa565b60405180910390207fc89efdaa54c0f20c7adf612882df0950f5a951637e0307cdcb4c672f298b8bc64630604051602001611f5d959493929190612ad3565b60405160208183030381529060405280519060200120905090565b600033905090565b6000807f000000000000000000000000000000000000000000000000000000000000000073ffffffffffffffffffffffffffffffffffffffff166370a08231306040518263ffffffff1660e01b8152600401611fdc91906129f8565b60206040518083038186803b158015611ff457600080fd5b505afa158015612008573d6000803e3d6000fd5b505050506040513d601f19601f8201168201806040525081019061202c9190612669565b90506000600a61203a61072a565b6120449190612da4565b9050808210159250505090565b60006040517f23b872dd0000000000000000000000000000000000000000000000000000000081528460048201528360248201528260448201526020600060648360008a5af13d15601f3d11600160005114161716915050806120e9576040517f08c379a00000000000000000000000000000000000000000000000000000000081526004016120e090612be8565b60405180910390fd5b5050505050565b80600260008282546121029190612d4e565b9250508190555080600360008473ffffffffffffffffffffffffffffffffffffffff1673ffffffffffffffffffffffffffffffffffffffff168152602001908152602001600020600082825401925050819055508173ffffffffffffffffffffffffffffffffffffffff16600073ffffffffffffffffffffffffffffffffffffffff167fddf252ad1be2c89b69c2b068fc378daa952ba7f163c4a11628f55a4df523b3ef836040516121b49190612ca8565b60405180910390a35050565b5050565b6000600660009054906101000a900473ffffffffffffffffffffffffffffffffffffffff16905081600660006101000a81548173ffffffffffffffffffffffffffffffffffffffff021916908373ffffffffffffffffffffffffffffffffffffffff1602179055508173ffffffffffffffffffffffffffffffffffffffff168173ffffffffffffffffffffffffffffffffffffffff167f8be0079c531659141344cd1fd0a4f28419497f9722a3daafe3b4186f6b6457e060405160405180910390a35050565b5050565b80600360008473ffffffffffffffffffffffffffffffffffffffff1673ffffffffffffffffffffffffffffffffffffffff16815260200190815260200160002060008282546122dd9190612fa0565b9250508190555080600260008282540392505081905550600073ffffffffffffffffffffffffffffffffffffffff168273ffffffffffffffffffffffffffffffffffffffff167fddf252ad1be2c89b69c2b068fc378daa952ba7f163c4a11628f55a4df523b3ef836040516123529190612ca8565b60405180910390a35050565b60006040517fa9059cbb000000000000000000000000000000000000000000000000000000008152836004820152826024820152602060006044836000895af13d15601f3d11600160005114161716915050806123f0576040517f08c379a00000000000000000000000000000000000000000000000000000000081526004016123e790612c08565b60405180910390fd5b50505050565b60008135905061240581613308565b92915050565b60008151905061241a8161331f565b92915050565b60008135905061242f81613336565b92915050565b6000813590506124448161334d565b92915050565b6000815190506124598161334d565b92915050565b60008135905061246e81613364565b92915050565b60008151905061248381613364565b92915050565b60006020828403121561249b57600080fd5b60006124a9848285016123f6565b91505092915050565b600080604083850312156124c557600080fd5b60006124d3858286016123f6565b92505060206124e4858286016123f6565b9150509250929050565b60008060006060848603121561250357600080fd5b6000612511868287016123f6565b9350506020612522868287016123f6565b925050604061253386828701612435565b9150509250925092565b600080600080600080600060e0888a03121561255857600080fd5b60006125668a828b016123f6565b97505060206125778a828b016123f6565b96505060406125888a828b01612435565b95505060606125998a828b01612435565b94505060806125aa8a828b0161245f565b93505060a06125bb8a828b01612420565b92505060c06125cc8a828b01612420565b91505092959891949750929550565b600080604083850312156125ee57600080fd5b60006125fc858286016123f6565b925050602061260d85828601612435565b9150509250929050565b60006020828403121561262957600080fd5b60006126378482850161240b565b91505092915050565b60006020828403121561265257600080fd5b600061266084828501612435565b91505092915050565b60006020828403121561267b57600080fd5b60006126898482850161244a565b91505092915050565b600080604083850312156126a557600080fd5b60006126b385828601612435565b92505060206126c4858286016123f6565b9150509250929050565b6000806000606084860312156126e357600080fd5b60006126f186828701612435565b9350506020612702868287016123f6565b9250506040612713868287016123f6565b9150509250925092565b60006020828403121561272f57600080fd5b600061273d84828501612474565b91505092915050565b61274f81612fd4565b82525050565b61275e81612fe6565b82525050565b61276d81612ff2565b82525050565b61278461277f82612ff2565b6130bc565b82525050565b600081546127978161308a565b6127a18186612d27565b945060018216600081146127bc57600181146127cd57612800565b60ff19831686528186019350612800565b6127d685612d07565b60005b838110156127f8578154818901526001820191506020810190506127d9565b838801955050505b50505092915050565b61281281613033565b82525050565b600061282382612d1c565b61282d8185612d32565b935061283d818560208601613057565b61284681613153565b840191505092915050565b600061285e600b83612d32565b915061286982613171565b602082019050919050565b6000612881602683612d32565b915061288c8261319a565b604082019050919050565b60006128a4600283612d43565b91506128af826131e9565b600282019050919050565b60006128c7601483612d32565b91506128d282613212565b602082019050919050565b60006128ea600f83612d32565b91506128f58261323b565b602082019050919050565b600061290d602083612d32565b915061291882613264565b602082019050919050565b6000612930600e83612d32565b915061293b8261328d565b602082019050919050565b6000612953600b83612d32565b915061295e826132b6565b602082019050919050565b6000612976601783612d32565b9150612981826132df565b602082019050919050565b6129958161301c565b82525050565b6129a481613026565b82525050565b60006129b6828461278a565b915081905092915050565b60006129cc82612897565b91506129d88285612773565b6020820191506129e88284612773565b6020820191508190509392505050565b6000602082019050612a0d6000830184612746565b92915050565b6000604082019050612a286000830185612746565b612a35602083018461298c565b9392505050565b6000602082019050612a516000830184612755565b92915050565b6000602082019050612a6c6000830184612764565b92915050565b600060c082019050612a876000830189612764565b612a946020830188612746565b612aa16040830187612746565b612aae606083018661298c565b612abb608083018561298c565b612ac860a083018461298c565b979650505050505050565b600060a082019050612ae86000830188612764565b612af56020830187612764565b612b026040830186612764565b612b0f606083018561298c565b612b1c6080830184612746565b9695505050505050565b6000608082019050612b3b6000830187612764565b612b48602083018661299b565b612b556040830185612764565b612b626060830184612764565b95945050505050565b6000602082019050612b806000830184612809565b92915050565b60006020820190508181036000830152612ba08184612818565b905092915050565b60006020820190508181036000830152612bc181612851565b9050919050565b60006020820190508181036000830152612be181612874565b9050919050565b60006020820190508181036000830152612c01816128ba565b9050919050565b60006020820190508181036000830152612c21816128dd565b9050919050565b60006020820190508181036000830152612c4181612900565b9050919050565b60006020820190508181036000830152612c6181612923565b9050919050565b60006020820190508181036000830152612c8181612946565b9050919050565b60006020820190508181036000830152612ca181612969565b9050919050565b6000602082019050612cbd600083018461298c565b92915050565b6000604082019050612cd8600083018561298c565b612ce5602083018461298c565b9392505050565b6000602082019050612d01600083018461299b565b92915050565b60008190508160005260206000209050919050565b600081519050919050565b600081905092915050565b600082825260208201905092915050565b600081905092915050565b6000612d598261301c565b9150612d648361301c565b9250827fffffffffffffffffffffffffffffffffffffffffffffffffffffffffffffffff03821115612d9957612d986130c6565b5b828201905092915050565b6000612daf8261301c565b9150612dba8361301c565b925082612dca57612dc96130f5565b5b828204905092915050565b6000808291508390505b6001851115612e1f57808604811115612dfb57612dfa6130c6565b5b6001851615612e0a5780820291505b8081029050612e1885613164565b9450612ddf565b94509492505050565b6000612e338261301c565b9150612e3e83613026565b9250612e6b7fffffffffffffffffffffffffffffffffffffffffffffffffffffffffffffffff8484612e73565b905092915050565b600082612e835760019050612f3f565b81612e915760009050612f3f565b8160018114612ea75760028114612eb157612ee0565b6001915050612f3f565b60ff841115612ec357612ec26130c6565b5b8360020a915084821115612eda57612ed96130c6565b5b50612f3f565b5060208310610133831016604e8410600b8410161715612f155782820a905083811115612f1057612f0f6130c6565b5b612f3f565b612f228484846001612dd5565b92509050818404811115612f3957612f386130c6565b5b81810290505b9392505050565b6000612f518261301c565b9150612f5c8361301c565b9250817fffffffffffffffffffffffffffffffffffffffffffffffffffffffffffffffff0483118215151615612f9557612f946130c6565b5b828202905092915050565b6000612fab8261301c565b9150612fb68361301c565b925082821015612fc957612fc86130c6565b5b828203905092915050565b6000612fdf82612ffc565b9050919050565b60008115159050919050565b6000819050919050565b600073ffffffffffffffffffffffffffffffffffffffff82169050919050565b6000819050919050565b600060ff82169050919050565b600061303e82613045565b9050919050565b600061305082612ffc565b9050919050565b60005b8381101561307557808201518184015260208101905061305a565b83811115613084576000848401525b50505050565b600060028204905060018216806130a257607f821691505b602082108114156130b6576130b5613124565b5b50919050565b6000819050919050565b7f4e487b7100000000000000000000000000000000000000000000000000000000600052601160045260246000fd5b7f4e487b7100000000000000000000000000000000000000000000000000000000600052601260045260246000fd5b7f4e487b7100000000000000000000000000000000000000000000000000000000600052602260045260246000fd5b6000601f19601f8301169050919050565b60008160011c9050919050565b7f5a45524f5f534841524553000000000000000000000000000000000000000000600082015250565b7f4f776e61626c653a206e6577206f776e657220697320746865207a65726f206160008201527f6464726573730000000000000000000000000000000000000000000000000000602082015250565b7f1901000000000000000000000000000000000000000000000000000000000000600082015250565b7f5452414e534645525f46524f4d5f4641494c4544000000000000000000000000600082015250565b7f5452414e534645525f4641494c45440000000000000000000000000000000000600082015250565b7f4f776e61626c653a2063616c6c6572206973206e6f7420746865206f776e6572600082015250565b7f494e56414c49445f5349474e4552000000000000000000000000000000000000600082015250565b7f5a45524f5f415353455453000000000000000000000000000000000000000000600082015250565b7f5045524d49545f444541444c494e455f45585049524544000000000000000000600082015250565b61331181612fd4565b811461331c57600080fd5b50565b61332881612fe6565b811461333357600080fd5b50565b61333f81612ff2565b811461334a57600080fd5b50565b6133568161301c565b811461336157600080fd5b50565b61336d81613026565b811461337857600080fd5b5056fea26469706673582212205ea8990c2c5ca5cb333e4cf87479a4c90d3408f6df830007031ed54288c4179764736f6c63430008010033",
  "linkReferences": {},
  "deployedLinkReferences": {}
}